:04000000FDEF19F007
:100800000056414C4F5245533A20004231204F464A
:10081000004232204F46004231204F4E00423220EB
:100820004F4E0025302E32660050683A2000696E27
:0708300066006E616E00001E
:10083800000E0001816F48C082F049C083F04AC0B1
:1008480084F04BC085F085BF2EEF04F02CEF04F048
:1008580042EF04F0010E816F82C001F083C002F004
:1008680084C003F085C004F070EC19F001C082F078
:1008780002C083F003C084F004C085F0000E0001BC
:10088800876F000E866FD5C075F0D6C076F081519F
:10089800D8B451EF04F053EF04F067EF04F081513E
:1008A800D8A459EF04F05BEF04F061EF04F0000EF8
:1008B800676F2B0E666F65EF04F0000E676F2D0EE5
:1008C800666F66C081F082C001F083C002F084C008
:1008D80003F085C004F0DDEC15F001040210D8A483
:1008E80078EF04F07AEF04F0A9EF04F000018151E9
:1008F800D8B481EF04F083EF04F08CEF04F081C0EA
:1009080000F17507D8A07607000E876F010E866F75
:10091800000E8625016E010E8721026E2E0E036ED3
:1009280037EC19F00001FD0E7527FF0E762347C03E
:100938000FF0000E106E010E116E75C012F076C029
:1009480013F0D4EC17F044EF09F082C001F083C033
:1009580002F084C003F085C004F0DDEC15F001500E
:100968000210D8A4BAEF04F0BCEF04F0DAEF04F0F8
:1009780000018151D8B4C3EF04F0C5EF04F0CEEF05
:1009880004F081C000F17507D8A07607000E876FC4
:10099800010E866F000E8625016E010E8721026EFC
:1009A800320E036E37EC19F096EF04F0000E0001DA
:1009B800886F000E896F800E8A6F3F0E8B6F000E56
:1009C800706F000E6F6F82C001F083C002F084C0A8
:1009D80003F085C004F0000E056E000E066E000ED2
:1009E800076E000E086EB1EC16F0D8B0FEEF04F0FA
:1009F80000EF05F0DFEF05F00DEF05F071C088F0AE
:100A080072C089F073C08AF074C08BF000016F4B1C
:100A1800702B88C001F089C002F08AC003F08BC037
:100A280004F0000E056E000E066E200E076E410ED5
:100A3800086EDCEC0DF001C071F002C072F003C06A
:100A480073F004C074F000017151825D016E72513F
:100A58008359026E73518459036E74518559046E1B
:100A680034EC18F004BE44EF05F0045003100210F3
:100A780009E1020E015CD8A044EF05F046EF05F04D
:100A880002EF05F071C01AF072C01BF073C01CF0C1
:100A980074C01DF082C01EF083C01FF084C020F017
:100AA80085C021F05BEC15F0D8A05DEF05F05FEF95
:100AB80005F002EF05F000018851825D016E895151
:100AC8008359026E8A518459036E8B518559046E7D
:100AD80034EC18F004BE7EEF05F004500310021049
:100AE80007E1020E015CD8B07CEF05F07EEF05F05F
:100AF800C6EF05F088C082F089C083F08AC084F010
:100B08008BC085F0DFEF05F088C01AF089C01BF0B4
:100B18008AC01CF08BC01DF0000E1E6E000E1F6EEA
:100B2800200E206E410E216EF1EC0FF01AC088F0F5
:100B38001BC089F01CC08AF01DC08BF000016F0734
:100B4800D8A070078851825D016E89518359026E61
:100B58008A518459036E8B518559046E34EC18F010
:100B680004BEC4EF05F004500310021007E1020EA2
:100B7800015CD8B0C2EF05F0C4EF05F0C6EF05F090
:100B88007EEF05F082C01AF083C01BF084C01CF011
:100B980085C01DF088C01EF089C01FF08AC020F0F3
:100BA8008BC021F05BEC15F0D8A0DDEF05F0DFEF8E
:100BB80005F088EF05F04CC069F069C06AF00001E3
:100BC800D8BFE9EF05F0EBEF05F0F1EF05F0D7C07E
:100BD80062F0D8C063F0F5EF05F0000E636F060E03
:100BE800626F62C06DF063C06EF06D4B6E2B660E67
:100BF8006A19D8A402EF06F004EF06F024EF06F015
:100C080070BF0BEF06F009EF06F017EF06F0000EC5
:100C1800886F000E896F800E8A6F3F0E8B6F000EF3
:100C2800706F000E6F6F670E6919D8B41EEF06F06B
:100C380020EF06F024EF06F06F516D2770516E23F8
:100C4800000E806F000E7F6F82C077F083C078F04F
:100C580084C079F085C07AF088C071F089C072F0DC
:100C68008AC073F08BC074F0B5EF06F077C01AF045
:100C780078C01BF079C01CF07AC01DF088C01EF047
:100C880089C01FF08AC020F08BC021F0F1EC0FF072
:100C98001AC033F01BC034F01CC035F01DC036F04C
:100CA800F5EC12F033C07BF034C07CF035C07DF039
:100CB80036C07EF07BC001F07CC002F07DC003F03E
:100CC8007EC004F0D8EC14F001C06BF002C06CF0E8
:100CD80077C01AF078C01BF079C01CF07AC01DF0FC
:100CE8007BC005F07CC006F07DC007F07EC008F030
:100CF80088C001F089C002F08AC003F08BC004F0FC
:100D0800DCEC0DF001C01EF002C01FF003C020F0A3
:100D180004C021F0B2EC18F01AC077F01BC078F0CC
:100D28001CC079F01DC07AF088C01AF089C01BF089
:100D38008AC01CF08BC01DF0000E1E6E000E1F6EC8
:100D4800200E206E410E216EF1EC0FF01AC088F0D3
:100D58001BC089F01CC08AF01DC08BF000017F4BBE
:100D6800802B6D517F5D8051800A4D6E6E51800AD7
:100D78004D58D8A0C2EF06F0C4EF06F03AEF06F0DF
:100D880088C001F089C002F08AC003F08BC004F06B
:100D9800000E056E000E066EA00E076E400E086E61
:100DA800DCEC0DF001C07BF002C07CF003C07DF0EC
:100DB80004C07EF077C01AF078C01BF079C01CF030
:100DC8007AC01DF07BC01EF07CC01FF07DC020F0F3
:100DD8007EC021F05BEC15F0D8B0F5EF06F0F7EF28
:100DE80006F002EF07F0000E00017B6F000E7C6F2B
:100DF800000E7D6F000E7E6F2BEF07F077C001F0BD
:100E080078C002F079C003F07AC004F07BC005F026
:100E18007CC006F07DC007F07EC008F0B1EC16F08B
:100E2800D8A019EF07F01BEF07F02BEF07F0000130
:100E38006BB121EF07F023EF07F02BEF07F0000E5F
:100E48007B6F000E7C6F000E7D6F000E7E6F82C080
:100E580001F083C002F084C003F085C004F07BC0B9
:100E680005F07CC006F07DC007F07EC008F045ECB8
:100E780009F001C077F002C078F003C079F004C02F
:100E88007AF077C01AF078C01BF079C01CF07AC0ED
:100E98001DF0000E056E000E066E200E076E410E48
:100EA800086E71C001F072C002F073C003F074C024
:100EB80004F0DCEC0DF001C01EF002C01FF003C00E
:100EC80020F004C021F05BEC15F0D8A06EEF07F01D
:100ED80070EF07F099EF07F000016F4B702B71C0AE
:100EE80001F072C002F073C003F074C004F0000E89
:100EF800056E000E066E200E076E410E086EDCECC5
:100F08000DF001C071F002C072F003C073F004C0AC
:100F180074F0660E00016A19D8A495EF07F097EFF0
:100F280007F099EF07F06D4B6E2B71C088F072C017
:100F380089F073C08AF074C08BF06FC060F070C025
:100F480061F0000E0001686F000E656F000E646F9F
:100F5800000E806F000E7F6F97EF08F077C01AF0D1
:100F680078C01BF079C01CF07AC01DF088C01EF054
:100F780089C01FF08AC020F08BC021F0F1EC0FF07F
:100F88001AC033F01BC034F01CC035F01DC036F059
:100F9800F5EC12F033C07BF034C07CF035C07DF046
:100FA80036C07EF07BC001F07CC002F07DC003F04B
:100FB8007EC004F0D8EC14F002BEEEEF07F0025049
:100FC80007E10A0E015CD8B0ECEF07F0EEEF07F08E
:100FD800FEEF07F07BC001F07CC002F07DC003F09B
:100FE8007EC004F0D8EC14F001C06BF002C06CF0C5
:100FF80003EF08F0000E00016C6F090E6B6F000123
:101008006851D8A40AEF08F00CEF08F034EF08F0A4
:1010180061BF13EF08F011EF08F034EF08F0000E8D
:101028008625D96E010E8721DA6E2E0EDF6E864B6D
:10103800872B7507D8A07607010E686F34EF08F084
:10104800000E8625D96E010E8721DA6E300EDF6E0E
:10105800864B872B7507D8A076076407D8A0650745
:1010680064516511D8A43BEF08F03DEF08F024EF78
:1010780008F0000E8625D96E010E8721DA6E6B51B5
:10108800300FDF6E864B872B7507D8A0760777C0A1
:101098001AF078C01BF079C01CF07AC01DF07BC034
:1010A80005F07CC006F07DC007F07EC008F088C05F
:1010B80001F089C002F08AC003F08BC004F0DCECB8
:1010C8000DF001C01EF002C01FF003C020F004C0E4
:1010D80021F0B2EC18F01AC077F01BC078F01CC0F1
:1010E80079F01DC07AF088C01AF089C01BF08AC058
:1010F8001CF08BC01DF0000E1E6E000E1F6E200E21
:10110800206E410E216EF1EC0FF01AC088F01BC062
:1011180089F01CC08AF01DC08BF000016007D8A0C0
:1011280061077F4B802B6D517F5D8051800A4D6E2A
:101138006E51800A4D58D8B0A4EF08F0A6EF08F019
:10114800B4EF08F087BFB2EF08F0875109E14B0E02
:10115800865DD8A0B2EF08F0B4EF08F0B2EF07F060
:10116800000E806F4F0E7F6F000E7F25D96E010E27
:101178008021DA6EDF6A000E4D6E010E4E6E8651CA
:101188004D5E87514E5A7F514D24016E80514E203D
:10119800026E000E036E010E046E86C005F087C055
:1011A80006F08AEC18F0000186517F5D866F875142
:1011B8008059876F8151D8A4E4EF08F0E7EF08F071
:1011C800010EE8EF08F0000E7F6F806BDFA3EFEFF2
:1011D80008F0F1EF08F01FEF09F001EF09F08607BA
:1011E800D8A08707000E8625D96E010E8721DA6EF2
:1011F800300EDF6E7507D8A0760775517F5D805178
:10120800800A4D6E7651800A4D58D8B00EEF09F01D
:1012180010EF09F01FEF09F086517F5D8051800AB9
:101228004D6E8751800A4D58D8A01DEF09F01FEF69
:1012380009F0F3EF08F08151D8B425EF09F027EF52
:1012480009F032EF09F08607D8A08707000E862537
:10125800D96E010E8721DA6E81C0DFFF7F51755F7D
:101268008051765B47C00FF0000E8625106E010E88
:101278008721116E75C012F076C013F0D4EC17F008
:1012880012000450800B0D6E045004240F6E03AE40
:1012980050EF09F052EF09F053EF09F00F800F50AB
:1012A800D8B459EF09F05BEF09F070EF09F00F2897
:1012B800D8A461EF09F063EF09F06BEF09F0000EB5
:1012C800016E000E026E000E036E000E046E038E99
:1012D800000E046E78EF09F0000E016E000E026E2B
:1012E800000E036E000E046E0850800B0E6E0D503B
:1012F8000E18D8B482EF09F084EF09F085EF09F0F1
:101308000D8C085008240E6E07AE8DEF09F08FEF94
:1013180009F090EF09F00E800E50D8B496EF09F05E
:1013280098EF09F0ADEF09F00E28D8A49EEF09F068
:10133800A0EF09F0A8EF09F0000E056E000E066E8A
:10134800000E076E000E086E078E000E086EB5EFD1
:1013580009F0000E056E000E066E000E076E000EF8
:10136800086E0F500E5CD8B0BCEF09F0BEEF09F064
:10137800E5EF09F00DACC3EF09F0C5EF09F0C7EFD1
:1013880009F0800E0D1A0FC010F00EC00FF010C03B
:101398000EF001C010F005C001F010C005F002C049
:1013A80010F006C002F010C006F003C010F007C02D
:1013B80003F010C007F004C010F008C004F010C01B
:1013C80008F0000E106E0F500EC009F00A6A095E90
:1013D800000E0A5A0ABEFAEF09F00A5009E11A0E7D
:1013E800095CD8A0FAEF09F0FCEF09F033EF0AF036
:1013F8000150021003100410D8A405EF0AF008EFFA
:101408000AF0010E09EF0AF0000E106E000E016ED0
:10141800000E026E000E036E000E046E0EC00FF07A
:101428003CEF0AF010A01BEF0AF01DEF0AF023EFC3
:101438000AF0D89010300109106E25EF0AF0D89004
:10144800103201A02AEF0AF02CEF0AF02DEF0AF073
:10145800108E043404320332023201320F2A0E5045
:101468000F5CD8A03AEF0AF03CEF0AF016EF0AF04A
:101478000DBC41EF0AF043EF0AF083EF0AF00F507A
:10148800D8A449EF0AF04BEF0AF055EF0AF0000E26
:10149800016E000E026E000E036E000E046EA4EFC5
:1014A8000BF005500126065002220750032208506F
:1014B800042204A062EF0AF064EF0AF010EF0BF0C8
:1014C80010A069EF0AF06BEF0AF071EF0AF0D890FC
:1014D80010300109106E73EF0AF0D890103201A095
:1014E80078EF0AF07AEF0AF07BEF0AF0108E0434F6
:1014F80004320332023201320F2A10EF0BF005508A
:10150800015C06500258075003580450800A096EBF
:101518000850800A0958D8B094EF0AF096EF0AF0FC
:10152800C1EF0AF00150055C096E025006580A6EB8
:10153800035007580B6E045008580C6EFF0E092410
:10154800016EFF0E0A20026EFF0E0B20036EFF0EC7
:101558000C20046E800E0D1A106C1050D8A4B7EF32
:101568000AF0B9EF0AF0C9EF0AF0010E0126000EE1
:10157800022203220422C9EF0AF00550015E065038
:10158800025A0750035A0850045A01500210031017
:101598000410D8A4D2EF0AF0D4EF0AF009EF0BF048
:1015A8001050D8A4DAEF0AF0DCEF0AF009EF0BF0DC
:1015B800000E016E000E026E000E036E000E046E29
:1015C800A4EF0BF0D890013602360336043610AE7D
:1015D800F0EF0AF0F2EF0AF0F3EF0AF0018010A042
:1015E800F8EF0AF0FAEF0AF0FEEF0AF0D8801036AA
:1015F80000EF0BF0D89010360F50D8B406EF0BF070
:1016080008EF0BF009EF0BF00F0603AE0EEF0BF02F
:1016180010EF0BF0E6EF0AF0000E0E6E10AE17EFAB
:101628000BF019EF0BF031EF0BF010C009F07F0E43
:101638000916D8B422EF0BF024EF0BF028EF0BF0CB
:10164800010E0E6E31EF0BF001A02DEF0BF02FEF16
:101658000BF031EF0BF024EF0BF00E50D8B437EF4E
:101668000BF039EF0BF064EF0BF0010E0126000EC2
:1016780002220322042204A044EF0BF046EF0BF0F1
:1016880064EF0BF001C009F002C00AF003C00BF0D0
:1016980004C00CF00C340C320B320A32093209C087
:1016A80001F00AC002F00BC003F00CC004F00F28D0
:1016B800D8B461EF0BF063EF0BF064EF0BF00F2A77
:1016C8000F28D8B46AEF0BF06CEF0BF074EF0BF047
:1016D8000F50D8A472EF0BF074EF0BF086EF0BF0FD
:1016E800000E016E000E026E000E036E000E046EF8
:1016F8000F50D8A482EF0BF084EF0BF086EF0BF0BD
:10170800000E0D6E0FA08BEF0BF08DEF0BF090EF2E
:101718000BF0038E91EF0BF0039ED8900F30046E00
:101728000DAE99EF0BF09BEF0BF09CEF0BF0048ED6
:1017380001C001F002C002F003C003F004C004F0CD
:1017480012002FEC1AF00EEC1AF0BEEC19F0C2825F
:10175800C2B2B1EF0BF0B3EF0BF0ACEF0BF0C4502B
:1017680000019F6FA06BD8909F37A037D8909F3704
:10177800A0379FC0DBF0A0C0DCF0C3CF9FF0060EFF
:10178800A06FD8909F33A02FC5EF0BF09F51D96F52
:10179800DA6BD951DB25DD6FDA51DC21DE6FDDC074
:1017A80001F0DEC002F0036A046A000EFEEC13F0DA
:1017B80001C0D1F002C0D2F003C0D3F004C0D4F00D
:1017C800000E036E000E026E000E056E000E046E13
:1017D800A6EC19F0010E026E8CEC19F0000E036EE7
:1017E800000E026E000E056E0B0E046EA6EC19F0CC
:1017F800000E056E000E066E600E076E410E086E36
:10180800D1C001F0D2C002F0D3C003F0D4C004F0BC
:10181800DCEC0DF001C01AF002C01BF003C01CF094
:1018280004C01DF0000E1E6EC00E1F6E7F0E206ECF
:10183800440E216EF1EC0FF01AC0D1F01BC0D2F0AB
:101848001CC0D3F01DC0D4F0A10E00018C6F230E74
:101858008D6FD1C08EF0D2C08FF0D3C090F0D4C0BD
:1018680091F054EC19F0000E036E010E026E000E9A
:10187800056E000E046EA6EC19F0290E026E8CECB3
:1018880019F0A10E026ED5EC19F0090E026E8CEC5F
:1018980019F0060E0001A06F130E9F6FAD0EE82E13
:1018A800FED79F2FFCD7A02FFAD700D0000E1A6EB4
:1018B800000E1B6ED00E1C6E400E1D6ED1C01EF0A9
:1018C800D2C01FF0D3C020F0D4C021F05BEC15F0DB
:1018D800D8B071EF0CF073EF0CF08CEF0CF0D1C0B6
:1018E8001AF0D2C01BF0D3C01CF0D4C01DF0000EFB
:1018F8001E6E000E1F6EF00E206E400E216E5BEC09
:1019080015F0D8B08AEF0CF08CEF0CF0C0EF0CF0AB
:1019180081B891EF0CF093EF0CF018EF0DF08A9C62
:101928008992000E036E000E026E000E056E0B0EFD
:10193800046EA6EC19F00B0E026E8CEC19F0000E7A
:10194800036E010E026E000E056E0B0E046EA6EC01
:1019580019F0110E026E8CEC19F00D0E0001A06F3B
:10196800AF0E9F6FB60EE82EFED79F2FFCD7A02F85
:10197800FAD7000018EF0DF0000E1A6E000E1B6E5D
:10198800F00E1C6E400E1D6ED1C01EF0D2C01FF0AE
:10199800D3C020F0D4C021F05BEC15F0D8B0D7EF5D
:1019A8000CF0D9EF0CF018EF0DF081B8DEEF0CF069
:1019B800E0EF0CF018EF0DF08A8C030E0001A06F19
:1019C8008A0E9F6F550EE82EFED79F2FFCD7A02FAB
:1019D800FAD700D08982000E036E000E026E000E48
:1019E800056E0B0E046EA6EC19F0170E026E8CEC49
:1019F80019F0000E036E010E026E000E056E0B0E3E
:101A0800046EA6EC19F01D0E026E8CEC19F00D0E8A
:101A18000001A06FAF0E9F6FB60EE82EFED79F2F66
:101A2800FCD7A02FFAD70000000E1A6E000E1B6E0E
:101A3800D00E1C6E400E1D6ED1C01EF0D2C01FF01D
:101A4800D3C020F0D4C021F05BEC15F0D8B02FEF54
:101A58000DF031EF0DF04AEF0DF0D1C01AF0D2C001
:101A68001BF0D3C01CF0D4C01DF0000E1E6E000E7B
:101A78001F6EF00E206E400E216E5BEC15F0D8B094
:101A880048EF0DF04AEF0DF07EEF0DF081A84FEF13
:101A98000DF051EF0DF0ABEF0BF08A9C8992000E20
:101AA800036E000E026E000E056E0B0E046EA6ECA1
:101AB80019F00B0E026E8CEC19F0000E036E010E7D
:101AC800026E000E056E0B0E046EA6EC19F0110ED8
:101AD800026E8CEC19F00D0E0001A06FAF0E9F6F17
:101AE800B60EE82EFED79F2FFCD7A02FFAD70000FE
:101AF800ABEF0BF0000E1A6E000E1B6EF00E1C6E94
:101B0800400E1D6ED1C01EF0D2C01FF0D3C020F011
:101B1800D4C021F05BEC15F0D8B095EF0DF097EF3D
:101B28000DF0ABEF0BF081A89CEF0DF09EEF0DF0E0
:101B3800D8EF0DF08A9C030E0001A06F8A0E9F6FEC
:101B4800550EE82EFED79F2FFCD7A02FFAD700D02E
:101B58008982000E036E000E026E000E056E0B0EDB
:101B6800046EA6EC19F00B0E026E8CEC19F0000E48
:101B7800036E010E026E000E056E0B0E046EA6ECCF
:101B880019F01D0E026E8CEC19F00D0E0001A06FFD
:101B9800AF0E9F6FB60EE82EFED79F2FFCD7A02F53
:101BA800FAD70000ABEF0BF0ABEF0BF000EF00F053
:101BB8000450800B0D6E04500424136E03AEE7EF3F
:101BC8000DF0E9EF0DF0EAEF0DF013801350D8B4E3
:101BD800F0EF0DF0F2EF0DF005EF0EF01328D8A49A
:101BE800F8EF0DF0FAEF0DF002EF0EF0000E016EB7
:101BF800000E026E000E036E000E046E038E0DEFD3
:101C08000EF0000E016E000E026E000E036E000E46
:101C1800046E0850800B0D1A08500824126E07AE87
:101C280018EF0EF01AEF0EF01BEF0EF012801250A4
:101C3800D8B421EF0EF023EF0EF036EF0EF0122895
:101C4800D8A429EF0EF02BEF0EF033EF0EF0000EB4
:101C5800056E000E066E000E076E000E086E078EEB
:101C68003EEF0EF0000E056E000E066E000E076EBB
:101C7800000E086E1250D8B444EF0EF046EF0EF086
:101C88004EEF0EF01350D8A44CEF0EF04EEF0EF0BE
:101C980058EF0EF0000E016E000E026E000E036E7D
:101CA800000E046EF0EF0FF007500102F3CF18F0AA
:101CB800F4CF19F018500E6E0F6A106A116A195095
:101CC800146E156A166A176A06500202F3CF18F0E6
:101CD800F4CF19F018500E26000E0F2210221122F0
:101CE80019501426000E1522162217220550030239
:101CF800F3CF18F0F4CF19F018500E26000E0F226B
:101D08001022112219501426000E1522162217220D
:101D180010C011F00FC010F00EC00FF00E6A055081
:101D28000202F3CF18F0F4CF19F018500E2619500C
:101D38000F22000E1022000E112206500102F3CFCE
:101D480018F0F4CF19F018500E2619500F22000E73
:101D58001022000E112210C011F00FC010F00EC09A
:101D68000FF00E6A05500102F3CF18F0F4CF19F006
:101D780018500E2619500F22000E1022000E1122A4
:101D880007500202F3CF18F0F4CF19F018501426B8
:101D980019501522000E1622000E172206500302B3
:101DA800F3CF18F0F4CF19F0185014261950152253
:101DB800000E1622000E172207500302F3CF18F068
:101DC800F4CF19F01850096E19500A6E0B6A0C6A94
:101DD8000BC00CF00AC00BF009C00AF0096A0950E0
:101DE80014260A5015220B5016220C5017220EC02A
:101DF80009F00FC00AF010C00BF011C00CF0190E5A
:101E08000BEF0FF0D8900C320B320A320932E82E61
:101E180006EF0FF0095014260A5015220B5016220F
:101E28000C50172210C011F00FC010F00EC00FF0A8
:101E38000E6A125013C009F00A6A0926000E0A2217
:101E4800820E0924186EFF0E0A20196E41EF0FF05A
:101E5800D890143615361636173611AE36EF0FF001
:101E680038EF0FF039EF0FF01480D8900E360F3698
:101E7800103611361806D8A0190616AE46EF0FF020
:101E880048EF0FF02CEF0FF0000E126E11AE4FEF6F
:101E98000FF051EF0FF075EF0FF0FF0E0E14096EF3
:101EA800FF0E0F140A6EFF0E10140B6E7F0E111426
:101EB8000C6E09500A100B100C10D8B466EF0FF016
:101EC80068EF0FF06CEF0FF0010E126E75EF0FF068
:101ED80014A071EF0FF073EF0FF075EF0FF068EFCC
:101EE8000FF01250D8B47BEF0FF07DEF0FF0A1EF99
:101EF8000FF0010E1426000E15221622172217A025
:101F080088EF0FF08AEF0FF0A1EF0FF014C009F07F
:101F180015C00AF016C00BF017C00CF00C340C32C8
:101F28000B320A32093209C014F00AC015F00BC08E
:101F380016F00CC017F0184A192A19BEACEF0FF0AA
:101F4800195008E11828D8A0ACEF0FF0AEEF0FF049
:101F5800B8EF0FF0000E146E000E156E800E166EA0
:101F68007F0E176EE6EF0FF019BEC5EF0FF0195090
:101F780006E11804D8B0C3EF0FF0C5EF0FF0D1EFAA
:101F88000FF0000E146E000E156E000E166E000E89
:101F9800176E000E0D6EE6EF0FF018C013F0FF0E6F
:101FA8001416FF0E15167F0E1616000E171613A020
:101FB800E0EF0FF0E2EF0FF0E3EF0FF0168ED8909E
:101FC8001330176E0D50171214C001F015C002F02F
:101FD80016C003F017C004F012001D50800B2A6EC3
:101FE8001D501D24316E1CAEFCEF0FF0FEEF0FF0FC
:101FF800FFEF0FF031803150D8B405EF10F007EF44
:1020080010F01CEF10F03128D8A40DEF10F00FEFEE
:1020180010F017EF10F0000E1A6E000E1B6E000E77
:102028001C6E000E1D6E1C8E000E1D6E24EF10F02F
:10203800000E1A6E000E1B6E000E1C6E000E1D6E3A
:102048002150800B2A1A21502124326E20AE2FEF06
:1020580010F031EF10F032EF10F032803250D8B477
:1020680038EF10F03AEF10F04FEF10F03228D8A404
:1020780040EF10F042EF10F04AEF10F0000E1E6E25
:10208800000E1F6E000E206E000E216E208E000EB8
:10209800216E57EF10F0000E1E6E000E1F6E000E20
:1020A800206E000E216E1E501F1020102110D8A483
:1020B80060EF10F062EF10F07AEF10F0000E1A6E79
:1020C800000E1B6E000E1C6E000E1D6E800E1C1284
:1020D8007F0E1D122A501D121AC01AF01BC01BF0C9
:1020E8001CC01CF01DC01DF0BDEF11F03150D8A46C
:1020F80080EF10F082EF10F08CEF10F0000E1A6EE7
:10210800000E1B6E000E1C6E000E1D6EBDEF11F052
:10211800325031C022F0236A225E000E235A7F0E0D
:1021280022242B6E000E23202C6E1AC026F01BC012
:1021380027F01CC028F01DC029F0000E1A6E000EF2
:102148001B6E000E1C6E000E1D6E000E2D6E000E16
:102158002E6E000E2F6E000E306E000E326EEDEFFA
:1021680010F03250D8B4BBEF10F0BDEF10F0D4EF40
:1021780010F0D8902636273628362936D8901A36C1
:102188001B361C361D3630AECCEF10F0CEEF10F0FB
:10219800CFEF10F01A80D8902D362E362F363036E5
:1021A8001E50265C1F502758205028582150295867
:1021B800D8A0E1EF10F0E3EF10F0ECEF10F0308C66
:1021C8001E50265E1F50275A2050285A2150295A3F
:1021D800322A190E3264F3EF10F0F5EF10F0B5EF74
:1021E80010F02650271028102910D8B4FEEF10F050
:1021F80000EF11F018EF11F02D8018EF11F0D890C2
:102208001A361B361C361D3630AE0DEF11F00FEFA7
:1022180011F010EF11F01A80D8902D362E362F3687
:1022280030362B06D8A02C061CAE1DEF11F01FEF80
:1022380011F003EF11F0000E326E30AE26EF11F000
:1022480028EF11F04CEF11F0FF0E2D14226EFF0E47
:102258002E14236EFF0E2F14246E7F0E3014256E5D
:102268002250231024102510D8B43DEF11F03FEF71
:1022780011F043EF11F0010E326E4CEF11F01AA07D
:1022880048EF11F04AEF11F04CEF11F03FEF11F069
:102298003250D8B452EF11F054EF11F078EF11F03A
:1022A800010E1A26000E1B221C221D221DA05FEF04
:1022B80011F061EF11F078EF11F01AC022F01BC095
:1022C80023F01CC024F01DC025F02534253224320B
:1022D8002332223222C01AF023C01BF024C01CF083
:1022E80025C01DF02B4A2C2A2CBE83EF11F02C5050
:1022F80008E12B28D8A083EF11F085EF11F090EFBB
:1023080011F0000E2C6E2B68000E1A6E000E1B6E5C
:10231800000E1C6E000E1D6E2CBE9DEF11F02C5091
:1023280006E12B04D8B09BEF11F09DEF11F0ABEF55
:1023380011F0000E2C6E000E2B6E000E1A6E000EA1
:102348001B6E000E1C6E000E1D6E000E2A6E2BC03A
:1023580031F031A0B2EF11F0B4EF11F0B7EF11F096
:102368001C8EB8EF11F01C9ED89031301D6E6EEFA8
:1023780010F012005050D96EDA6ADFCFF6FF080E5F
:10238800F76E0800F550250AD8A4CDEF11F0CFEF6D
:1023980011F0E3EF12F05050D96EDA6ADF2A000E1E
:1023A8000001D66F000ED56FD5C0DFF0D769D869A8
:1023B800000E586E05EF12F00001DF835050D96E01
:1023C800DA6ADF2A05EF12F0010E586E05EF12F0F7
:1023D8005050D96EDA6ADFCFF6FF080EF76E0800A4
:1023E800F550526E536A5350000AD8B4FEEF11F0FC
:1023F800E8EF11F05250300AD8B4E0EF11F0E8EFEE
:1024080011F05850D8B40BEF12F00DEF12F0ECEFBA
:1024180011F05050D96EDA6ADFCFF6FF080EF76E6A
:102428000800F5502E0AD8A41CEF12F01EEF12F087
:102438002CEF12F05050D96EDA6ADF2A50C007F03C
:1024480051C008F006EC17F007C0D7F008C0D8F064
:102458005050D96EDA6ADF505A6E5AC0F6FF080E2D
:10246800F76E0800F5CF59F045EF12F05A2A5EEFE3
:1024780012F06C0E596E5EEF12F0000E596E5EEFA0
:1024880012F05950526E536A5350000AD8B44FEFA5
:1024980012F041EF12F052504C0AD8B43AEF12F051
:1024A8002A0AD8B43DEF12F00A0AD8B43AEF12F06B
:1024B80041EF12F05AC0F6FF080EF76E0800F5500B
:1024C800660AD8A46AEF12F06CEF12F0DDEF12F092
:1024D80096EF12F05150D96EDA6ADFCF52F0040E3F
:1024E800DF265250D96EDA6ADECF54F0DECF55F0CF
:1024F800DECF56F0DECF57F0ABEF12F05150D96E69
:10250800DA6ADFCF52F0040EDF265250D96EDA6A4B
:10251800DECF54F0DECF55F0DECF56F0DECF57F0E9
:10252800ABEF12F05950526E536A5350000AD8B4A8
:10253800A0EF12F0ABEF12F052504C0AD8B482EF71
:1025480012F0200AD8B46EEF12F0ABEF12F0505030
:10255800D96EDA6A5A28DF6EC7EF12F04FC047F01B
:1025680054C048F055C049F056C04AF057C04BF027
:102578005AC0F6FF080EF76E0800F5CF4CF01CECB9
:1025880004F0F4EF12F05AC0F6FF080EF76E0800D8
:10259800F550526E536A5350000AD8B4D6EF12F071
:1025A800DDEF12F05250660AD8B4B2EF12F0DDEF48
:1025B80012F05050D96EDA6ADF2AF4EF12F0505058
:1025C800D96EDA6ADFCFF6FF080EF76E0800F5500D
:1025D800016E026A4FC003F05CEC16F0DDEF12F0FA
:1025E8001200C9C043F0CAC044F0CBC045F0CCC00B
:1025F80046F033C043F034C044F035C045F036C02F
:1026080046F0810E376EFF0E386E43C039F044C075
:102618003AF045C03BF046C03CF0180E19EF13F0F5
:10262800D8903C323B323A323932E82E14EF13F06C
:1026380039503724416E000E3820426E42BE2EEFCC
:1026480013F0425009E1170E415CD8A02EEF13F0A9
:1026580030EF13F03AEF13F033C033F034C034F0F6
:1026680035C035F036C036F0FDEF13F042BE3FEF0F
:1026780013F041EF13F0B1EF13F041C037F0FF0E44
:10268800386EFF0E396E7F0E3A6E000E3B6E37665F
:1026980050EF13F058EF13F03B343B323A323932F3
:1026A8003832372E4BEF13F038C03DF039C03EF0CA
:1026B8003AC03FF03BC040F03D504314376E3E50A7
:1026C8004414386E3F504514396E405046143A6EE3
:1026D8003750381039103A10D8A475EF13F077EF47
:1026E80013F079EF13F030EF13F043C037F044C024
:1026F80038F045C039F046C03AF0200E89EF13F0A3
:10270800D8903A32393238323732E82E84EF13F023
:102718003750381039103A10D8B495EF13F097EFB6
:1027280013F09FEF13F03D5043263E5044223F5094
:102738004522405046223D1C376E3E1C386E3F1CD9
:10274800396E401C3A6E375043163850441639508B
:1027580045163A504616F5EF13F043C037F044C01B
:1027680038F045C039F046C03AF0200EC1EF13F0FA
:10277800D8903A32393238323732E82EBCEF13F07B
:102788003750381039103A10D8A4CDEF13F0CFEFE6
:1027980013F0D9EF13F0000E436E000E446E000ED6
:1027A800456E000E466EF5EF13F0D8904334376E41
:1027B8004434386E4534396E46343A6E37503810E2
:1027C80039103A10D8B4EBEF13F0EDEF13F0F5EF42
:1027D80013F0000E436E000E446E800E456EBF0E61
:1027E800466E43C033F044C034F045C035F046C0AF
:1027F80036F01200096E0950D8B405EF14F007EF4F
:1028080014F029EF14F004BE0EEF14F00CEF14F0DE
:1028180029EF14F001C005F002C006F003C007F06C
:1028280004C008F0051E061E071E081E052A000E15
:1028380006220722082205C00BF006C00CF007C0CC
:102848000DF008C00EF031EF14F001C00BF002C01B
:102858000CF003C00DF004C00EF00150021003107C
:102868000410D8A43AEF14F03CEF14F046EF14F03B
:10287800000E016E000E026E000E036E000E046E56
:10288800D7EF14F0960E0A6E50EF14F00A2AD8907B
:102898000E320D320C320B32000E0B14056E000E88
:1028A8000C14066E000E0D14076EFE0E0E14086E44
:1028B8000550061007100810D8A465EF14F067EF4C
:1028C80014F04AEF14F075EF14F00A2A010E0B26E3
:1028D800000E0C220D220E22D8900E320D320C3230
:1028E8000B32000E0B14056E000E0C14066E000E53
:1028F8000D14076EFF0E0E14086E05500610071013
:102908000810D8A48AEF14F08CEF14F069EF14F0D3
:1029180094EF14F00A06D8900B360C360D360E36A6
:102928000DBE99EF14F09BEF14F0A3EF14F0020E14
:102938000A60A1EF14F0A3EF14F08EEF14F00AB0C0
:10294800A8EF14F0AAEF14F0ABEF14F00D9ED89096
:102958000A320AC005F0066A076A086A05C008F064
:10296800076A066A056A05500B1206500C120750D2
:102978000D1208500E120950D8B4C5EF14F0C7EF65
:1029880014F0CFEF14F004BECEEF14F0CCEF14F037
:10299800CFEF14F00E8E0BC001F00CC002F00DC08A
:1029A80003F00EC004F01200033404340A6E0A5017
:1029B800D8A4E1EF14F0E3EF14F0EDEF14F0000EFB
:1029C800016E000E026E000E036E000E046E5AEFCA
:1029D80015F001C005F002C006F003C007F004C0FE
:1029E80008F0200EFDEF14F0D890083207320632B6
:1029F8000532E82EF8EF14F00550096E038EFF0E2D
:102A08000116FF0E0216FF0E0316000E0416960E90
:102A18000A5E0ABE14EF15F012EF15F02AEF15F052
:102A28000A50800A970FD8B01CEF15F01EEF15F06A
:102A380020EF15F0E3EF14F0D8900432033202329D
:102A480001320A3E20EF15F042EF15F01F0E0A641E
:102A580030EF15F032EF15F03AEF15F0E3EF14F020
:102A6800D89001360236033604360A060A50D8A42E
:102A780040EF15F042EF15F034EF15F00950D8B4D7
:102A880048EF15F04AEF15F052EF15F0041E031E3B
:102A9800021E016C000E02220322042201C001F072
:102AA80002C002F003C003F004C004F01200000EDC
:102AB8001A14226E000E1B14236E800E1C14246E32
:102AC8007F0E1D14256E2250231024102510D8A423
:102AD80070EF15F072EF15F07AEF15F0000E1A6E20
:102AE800000E1B6E000E1C6E000E1D6E000E1E14D6
:102AF800226E000E1F14236E800E2014246E7F0E8B
:102B08002114256E2250231024102510D8A48FEFED
:102B180015F091EF15F099EF15F0000E1E6E000EEE
:102B28001F6E000E206E000E216E1DAE9EEF15F07A
:102B3800A0EF15F0A9EF15F01A6C1B1ED8B01B2AD0
:102B48001C1ED8B01C2A800E1D5621AEAEEF15F003
:102B5800B0EF15F0B9EF15F01E6C1F1ED8B01F2A84
:102B6800201ED8B0202A800E2156000E1A1A000EF8
:102B78001B1A000E1C1A800E1D1A000E1E1A000EBB
:102B88001F1A000E201A800E211A1E501A5C1F50A0
:102B98001B5820501C5821501D58D8B0D6EF15F09E
:102BA800D8EF15F0DBEF15F0D890DCEF15F0D880F2
:102BB8001200CDC00BF0CEC00CF0CFC00DF0D0C0CD
:102BC8000EF001C00BF002C00CF003C00DF004C001
:102BD8000EF00BC005F00CC006F00DC007F00EC0DB
:102BE80008F0180EFDEF15F0D890083207320632BB
:102BF8000532E82EF8EF15F00550096E0A6A0950FB
:102C08000A10D8A40AEF16F00CEF16F02CEF16F005
:102C1800D8900B34056E0C34066E0D34076E0E34E6
:102C2800086E0550061007100810D8A41EEF16F0FD
:102C380020EF16F026EF16F0000E026E020E016E5F
:102C48005BEF16F0000E026E030E016E5BEF16F0DE
:102C580009280A10D8A433EF16F035EF16F057EF0D
:102C680016F00BC005F00CC006F00DC007F00EC042
:102C780008F0090ED8900536063607360836E82ECD
:102C88003EEF16F00550061007100810D8B44FEFA5
:102C980016F052EF16F0010E53EF16F0000E016E0B
:102CA800026A5BEF16F0000E026E040E016E12004F
:102CB8000350D8B462EF16F064EF16F06CEF16F01C
:102CC8000350D8A46AEF16F06CEF16F071EF16F007
:102CD800015040EC1AF0B0EF16F00350D96EDA6AE2
:102CE8000A0ED926DE50DE10D8B47DEF16F07FEF3D
:102CF80016F098EF16F00350D96EDA6A0A0ED92644
:102D08000350E16EE26A030EE126DE50E65CE6500F
:102D1800800A086EDE50800A0858D8B096EF16F080
:102D280098EF16F0B0EF16F00350D96EDA6A030E7A
:102D3800D926DF50046E0350D96EDA6ADF500424B6
:102D4800D96EDA6A01C0DFFF0350D96EDA6A030E62
:102D5800D926DE2A000EDD221200000E0114096EAB
:102D6800000E02140A6E800E03140B6E7F0E0414FC
:102D78000C6E09500A100B100C10D8A4C6EF16F0F0
:102D8800C8EF16F0D0EF16F0000E016E000E026EBE
:102D9800000E036E000E046E000E0514096E000E80
:102DA80006140A6E800E07140B6E7F0E08140C6E44
:102DB80009500A100B100C10D8A4E5EF16F0E7EF35
:102DC80016F0EFEF16F0000E056E000E066E000E00
:102DD800076E000E086E055001180FE10650021824
:102DE8000CE10750031809E108500418D8B4FFEFA4
:102DF80016F001EF17F004EF17F0D89005EF17F071
:102E0800D8801200000E0B6E000E0A6E0750D96EA5
:102E1800DA6ADFCFF6FF080EF76E0800F5502A0AC7
:102E2800D8A419EF17F01BEF17F041EF17F0075070
:102E3800D96EDA6ADF2A0850D96EDA6A020EDF26FE
:102E4800DF5CD96EDA6ADECF0AF0DECF0BF054EF22
:102E580017F00AC001F00BC002F0000E046E0A0E53
:102E6800036EEAEC19F0095001240A6E000E0220E4
:102E78000B6E0750D96EDA6ADF2A0750D96EDA6A04
:102E8800DFCFF6FF080EF76E0800F550D00F096E79
:102E9800090E096452EF17F054EF17F02DEF17F0F1
:102EA8000AC007F00BC008F01200056E26EC1AF0F5
:102EB800F00E83160F0E95129598959A959C8C98FE
:102EC8008C9A8C9C26EC1AF0F00E9516F00E831650
:102ED80083828C8C3BEC1AF08C9C1DEC1AF0F00E63
:102EE800831683828C8C3BEC1AF08C9C1DEC1AF0B8
:102EF800F00E831683828C8C3BEC1AF08C9C0F0EA0
:102F0800951205505FEC18F005505FEC18F0080EAC
:102F18005FEC18F00F0E5FEC18F0010E5FEC18F084
:102F2800130E5FEC18F0000E9BEC17F01200046E05
:102F3800D5EC18F00009D8A4A4EF17F0A6EF17F005
:102F48009CEF17F0F00E9516F00E83160450016EE4
:102F5800026A800E0112000E0212040E036E023481
:102F680002320132032EB3EF17F001500F0B831218
:102F78008C988C9A3BEC1AF08C8C3BEC1AF08C9C5D
:102F8800F00E831604500F0B83123BEC1AF08C8C56
:102F98003BEC1AF08C9C0F0E951236EC1AF01200CE
:102FA80013BEDBEF17F0D9EF17F0DFEF17F0000EC5
:102FB800136E000E126E000E166E000E156EEFEFF9
:102FC80017F0000E026E200E016E0FC003F05CECCD
:102FD80016F0154A162A1250155C1650800A146EFF
:102FE8001350800A1458D8A0FCEF17F0FEEF17F022
:102FF800E5EF17F010C009F011C00AF00FC00BF090
:10300800F8EC18F01200016ED5EC18F00009D8A4FD
:1030180010EF18F012EF18F008EF18F0F00E9516F0
:10302800F00E831601380F0B0F0B83128C8A8C98C5
:103038003BEC1AF08C8C3BEC1AF08C9C3BEC1AF0B5
:10304800F00E831601500F0B83123BEC1AF08C8C98
:103058003BEC1AF08C9C0F0E951236EC1AF012000D
:1030680004BE39EF18F03BEF18F045EF18F001C037
:1030780001F002C002F003C003F004C004F05EEFE8
:1030880018F001C005F002C006F003C007F004C044
:1030980008F0051E061E071E081E052A000E062239
:1030A8000722082205C001F006C002F007C003F09D
:1030B80008C004F01200016ED5EC18F00009D8A47D
:1030C80068EF18F06AEF18F060EF18F0F00E951638
:1030D800F00E831601380F0B0F0B83128C988C9A05
:1030E8003BEC1AF08C8C3BEC1AF08C9CF00E83169F
:1030F80001500F0B83123BEC1AF08C8C3BEC1AF04E
:103108008C9C0F0E951236EC1AF0120003C00AF0D0
:1031180004C00BF001C008F002C009F0A4EF18F0D9
:103128000AC0D9FF0BC0DAFFDF50076E0A4A0B2A24
:1031380008C0D9FF09C0DAFF07C0DFFF084A092A1B
:103148000506D8A00606052806E10628D8A4AFEF8C
:1031580018F0B1EF18F094EF18F01200000E1E1AD4
:10316800000E1F1A000E201A800E211A1AC001F034
:103178001BC002F01CC003F01DC004F01EC005F007
:103188001FC006F020C007F021C008F045EC09F088
:1031980001C01AF002C01BF003C01CF004C01DF0EF
:1031A80012008C888C9A3BEC1AF08C8C3BEC1AF051
:1031B80083A6E1EF18F0E3EF18F0EEEF18F08C9C1F
:1031C8003BEC1AF08C8C3BEC1AF08C9C8C98010E22
:1031D800F7EF18F08C9C3BEC1AF08C8C3BEC1AF057
:1031E8008C9C8C98000E1200000E0E6E000E0D6E58
:1031F80007EF19F00CC001F0026A0BC003F05CEC99
:1032080016F00D4A0E2A0D500924D96E0E500A20C8
:10321800DA6EDF500C6E0C50D8A415EF19F017EFCA
:1032280019F0FEEF18F012005CC05EF024EF19F000
:103238005BC04FF05E0E506E5DC051F0BEEC11F0F9
:103248005EC0F6FF080EF76E0800F5500009D8A416
:1032580030EF19F032EF19F01CEF19F0000E5C6E28
:10326800000E5B6E120001C005F002C006F0032AD2
:103278000304046E04C0F6FF080EF76E05C0D9FFFC
:1032880006C0DAFF054A062A0800F5CFDFFFDF503F
:10329800D8A451EF19F053EF19F03BEF19F01200D1
:1032A8008E0E0001926F8CC093F0000E976F000E87
:1032B800966F000E9E6F000E9D6F930E5B6E8DC015
:1032C8005CF0920E5D6E18EC19F000018C51962599
:1032D800D96EDA6ADF6A1200015002100310041076
:1032E800D8B479EF19F07BEF19F083EF19F0000EDD
:1032F800011A000E021A000E031A800E041A01C0E9
:1033080001F002C002F003C003F004C004F0120090
:1033180097EF19F002C0F6FF080EF76E0800F55097
:1033280007EC18F0022A02C0F6FF080EF76E080034
:10333800F5500009D8A4A3EF19F0A5EF19F08EEF06
:1033480019F0120003BEB1EF19F0035008E10204AE
:10335800D8A0B1EF19F0B3EF19F0B9EF19F0045094
:10336800C00F5FEC18F0BDEF19F00450800F5FEC50
:1033780018F01200C30EC216C150F00B0D09C16E31
:10338800CF0EC116C09EC050C70B1809C06EC050E2
:10339800F80B0509C06EC292C280050EE82EFED752
:1033A8001200DEEF19F00250D96EDA6ADF5007EC2E
:1033B80018F0022A0250D96EDA6ADF50D8A4E7EF73
:1033C80019F0E9EF19F0D7EF19F0120001500302D4
:1033D800F3CF05F0F4CF06F001500402F3500626AF
:1033E80002500302F350062605C001F006C002F0A1
:1033F800120001EE00F0500EEE6AE806FDE100EE64
:10340800C9F0170EEE6AE806FDE1000EF86E00013D
:10341800A5EF0BF026EC1AF02B0E59EC17F00C0E5A
:103428005FEC18F0010E5FEC18F0800E5FEC18F0FE
:1034380012002E0E016E730EE82EFED7012EFCD759
:1034480000001200A30E016E550EE82EFED7012EC5
:10345800FCD700001200000E956E92809388939C12
:1034680092921200A60EE82EFED700D01200030E8C
:0A347800E82EFED70000120012003B
:020000040020DA
:08000000FFFFFFFFFFFFFFFF00
:020000040030CA
:0E000000000C1E1EFF8185FF0FC00FE00F4099
:00000001FF
